{
  "_format": "hh-sol-artifact-1",
  "contractName": "CoffeeMachine",
  "sourceName": "contracts/CoffeeMachine.sol",
  "abi": [
    {
      "inputs": [],
      "stateMutability": "payable",
      "type": "constructor"
    },
    {
      "anonymous": false,
      "inputs": [
        {
          "indexed": true,
          "internalType": "address",
          "name": "from",
          "type": "address"
        },
        {
          "indexed": false,
          "internalType": "uint256",
          "name": "timestamp",
          "type": "uint256"
        },
        {
          "indexed": false,
          "internalType": "string",
          "name": "message",
          "type": "string"
        },
        {
          "indexed": false,
          "internalType": "string",
          "name": "name",
          "type": "string"
        }
      ],
      "name": "NewCoffee",
      "type": "event"
    },
    {
      "inputs": [
        {
          "internalType": "string",
          "name": "_message",
          "type": "string"
        },
        {
          "internalType": "string",
          "name": "_name",
          "type": "string"
        }
      ],
      "name": "buyCoffee",
      "outputs": [],
      "stateMutability": "payable",
      "type": "function"
    },
    {
      "inputs": [],
      "name": "getAllCoffee",
      "outputs": [
        {
          "components": [
            {
              "internalType": "address",
              "name": "giver",
              "type": "address"
            },
            {
              "internalType": "string",
              "name": "message",
              "type": "string"
            },
            {
              "internalType": "string",
              "name": "name",
              "type": "string"
            },
            {
              "internalType": "uint256",
              "name": "timestamp",
              "type": "uint256"
            }
          ],
          "internalType": "struct CoffeeMachine.Coffee[]",
          "name": "",
          "type": "tuple[]"
        }
      ],
      "stateMutability": "view",
      "type": "function"
    },
    {
      "inputs": [],
      "name": "getTotalCoffee",
      "outputs": [
        {
          "internalType": "uint256",
          "name": "",
          "type": "uint256"
        }
      ],
      "stateMutability": "view",
      "type": "function"
    },
    {
      "inputs": [],
      "name": "owner",
      "outputs": [
        {
          "internalType": "address payable",
          "name": "",
          "type": "address"
        }
      ],
      "stateMutability": "view",
      "type": "function"
    }
  ],
  "bytecode": "0x60c0604052601a60809081527f536d61727420436f6e747261637420496e697469616c697a656400000000000060a0526100439061005a602090811b61054517901c565b600180546001600160a01b03191633179055610118565b6100a18160405160240161006e91906100c5565b60408051601f198184030181529190526020810180516001600160e01b0390811663104c13eb60e21b179091526100a416565b50565b80516a636f6e736f6c652e6c6f67602083016000808483855afa5050505050565b6000602080835283518082850152825b818110156100f1578581018301518582016040015282016100d5565b818111156101025783604083870101525b50601f01601f1916929092016040019392505050565b610a0f806101276000396000f3fe60806040526004361061003f5760003560e01c8063204206e1146100445780634839ee3f146100595780638da5cb5b14610081578063d386beca146100b9575b600080fd5b610057610052366004610756565b6100db565b005b34801561006557600080fd5b5061006e610375565b6040519081526020015b60405180910390f35b34801561008d57600080fd5b506001546100a1906001600160a01b031681565b6040516001600160a01b039091168152602001610078565b3480156100c557600080fd5b506100ce6103a2565b6040516100789190610802565b66038d7ea4c6800047348211156101395760405162461bcd60e51b815260206004820152601b60248201527f496e73756666696369656e742045746865722070726f7669646564000000000060448201526064015b60405180910390fd5b803411156101895760405162461bcd60e51b815260206004820181905260248201527f4e6f7420656e6f75676820746f6b656e7320696e2074686520726573657276656044820152606401610130565b600160008082825461019b9190610943565b909155505060408051808201909152601a81527f257320686173206a7573742073656e74206120636f666665652100000000000060208201526101de903361058b565b6040805160808101825233815260208082018781529282018690524260608301526002805460018101825560009190915282517f405787fa12a823e0f2b7631cc41b3ba8828b3321ca811111fa75cd3aa3bb5ace600490920291820180546001600160a01b0319166001600160a01b0390921691909117815593518051939493610291937f405787fa12a823e0f2b7631cc41b3ba8828b3321ca811111fa75cd3aa3bb5acf909301929190910190610636565b50604082015180516102ad916002840191602090910190610636565b50606091909101516003909101556001546040516000916001600160a01b0316903480156108fc029184818181858888f193505050509050806103295760405162461bcd60e51b81526020600482015260146024820152734661696c656420746f2073656e64206d6f6e657960601b6044820152606401610130565b336001600160a01b03167f5d202edb9ac9aca913189e3c829f7fdbba23859e91379c70ecf7874fe39632a74287876040516103669392919061090e565b60405180910390a25050505050565b600061039b6040518060600160405280602181526020016109b9602191396000546105d4565b5060005490565b60606002805480602002602001604051908101604052809291908181526020016000905b8282101561053c57600084815260209081902060408051608081019091526004850290910180546001600160a01b03168252600181018054929391929184019161040f90610967565b80601f016020809104026020016040519081016040528092919081815260200182805461043b90610967565b80156104885780601f1061045d57610100808354040283529160200191610488565b820191906000526020600020905b81548152906001019060200180831161046b57829003601f168201915b505050505081526020016002820180546104a190610967565b80601f01602080910402602001604051908101604052809291908181526020018280546104cd90610967565b801561051a5780601f106104ef5761010080835404028352916020019161051a565b820191906000526020600020905b8154815290600101906020018083116104fd57829003601f168201915b50505050508152602001600382015481525050815260200190600101906103c6565b50505050905090565b6105888160405160240161055991906108a8565b60408051601f198184030181529190526020810180516001600160e01b031663104c13eb60e21b179052610615565b50565b6105d082826040516024016105a19291906108c2565b60408051601f198184030181529190526020810180516001600160e01b031663319af33360e01b179052610615565b5050565b6105d082826040516024016105ea9291906108ec565b60408051601f198184030181529190526020810180516001600160e01b03166309710a9d60e41b1790525b80516a636f6e736f6c652e6c6f67602083016000808483855afa5050505050565b82805461064290610967565b90600052602060002090601f01602090048101928261066457600085556106aa565b82601f1061067d57805160ff19168380011785556106aa565b828001600101855582156106aa579182015b828111156106aa57825182559160200191906001019061068f565b506106b69291506106ba565b5090565b5b808211156106b657600081556001016106bb565b600082601f8301126106df578081fd5b813567ffffffffffffffff808211156106fa576106fa6109a2565b604051601f8301601f19908116603f01168101908282118183101715610722576107226109a2565b8160405283815286602085880101111561073a578485fd5b8360208701602083013792830160200193909352509392505050565b60008060408385031215610768578182fd5b823567ffffffffffffffff8082111561077f578384fd5b61078b868387016106cf565b935060208501359150808211156107a0578283fd5b506107ad858286016106cf565b9150509250929050565b60008151808452815b818110156107dc576020818501810151868301820152016107c0565b818111156107ed5782602083870101525b50601f01601f19169290920160200192915050565b60006020808301818452808551808352604092508286019150828160051b870101848801865b8381101561089a57888303603f19018552815180516001600160a01b0316845287810151608089860181905290610861828701826107b7565b915050878201518582038987015261087982826107b7565b60609384015196909301959095525094870194925090860190600101610828565b509098975050505050505050565b6020815260006108bb60208301846107b7565b9392505050565b6040815260006108d560408301856107b7565b905060018060a01b03831660208301529392505050565b6040815260006108ff60408301856107b7565b90508260208301529392505050565b83815260606020820152600061092760608301856107b7565b828103604084015261093981856107b7565b9695505050505050565b6000821982111561096257634e487b7160e01b81526011600452602481fd5b500190565b600181811c9082168061097b57607f821691505b6020821081141561099c57634e487b7160e01b600052602260045260246000fd5b50919050565b634e487b7160e01b600052604160045260246000fdfe5765206861766520256420746f74616c20636f6666656520726563696576656420a26469706673582212204d888f014352f11617ecb4f9311946023e6590a99e6b67d45ed0e5e899f92a7564736f6c63430008040033",
  "linkReferences": {},
  "deployedLinkReferences": {}
}