{
  "_format": "hh-sol-artifact-1",
  "contractName": "CoffeeMachine",
  "sourceName": "contracts/CoffeeMachine.sol",
  "abi": [
    {
      "inputs": [],
      "stateMutability": "payable",
      "type": "constructor"
    },
    {
      "anonymous": false,
      "inputs": [
        {
          "indexed": true,
          "internalType": "address",
          "name": "from",
          "type": "address"
        },
        {
          "indexed": false,
          "internalType": "uint256",
          "name": "timestamp",
          "type": "uint256"
        },
        {
          "indexed": false,
          "internalType": "string",
          "name": "message",
          "type": "string"
        },
        {
          "indexed": false,
          "internalType": "string",
          "name": "name",
          "type": "string"
        }
      ],
      "name": "NewCoffee",
      "type": "event"
    },
    {
      "inputs": [
        {
          "internalType": "string",
          "name": "_message",
          "type": "string"
        },
        {
          "internalType": "string",
          "name": "_name",
          "type": "string"
        },
        {
          "internalType": "uint256",
          "name": "_payAmount",
          "type": "uint256"
        }
      ],
      "name": "buyCoffee",
      "outputs": [],
      "stateMutability": "payable",
      "type": "function"
    },
    {
      "inputs": [],
      "name": "getAllCoffee",
      "outputs": [
        {
          "components": [
            {
              "internalType": "address",
              "name": "giver",
              "type": "address"
            },
            {
              "internalType": "string",
              "name": "message",
              "type": "string"
            },
            {
              "internalType": "string",
              "name": "name",
              "type": "string"
            },
            {
              "internalType": "uint256",
              "name": "timestamp",
              "type": "uint256"
            }
          ],
          "internalType": "struct CoffeeMachine.Coffee[]",
          "name": "",
          "type": "tuple[]"
        }
      ],
      "stateMutability": "view",
      "type": "function"
    },
    {
      "inputs": [],
      "name": "getTotalCoffee",
      "outputs": [
        {
          "internalType": "uint256",
          "name": "",
          "type": "uint256"
        }
      ],
      "stateMutability": "view",
      "type": "function"
    },
    {
      "inputs": [],
      "name": "owner",
      "outputs": [
        {
          "internalType": "address payable",
          "name": "",
          "type": "address"
        }
      ],
      "stateMutability": "view",
      "type": "function"
    }
  ],
  "bytecode": "0x60c0604052601a60809081527f536d61727420436f6e747261637420496e697469616c697a656400000000000060a0526100439061005a602090811b61052017901c565b600180546001600160a01b03191633179055610118565b6100a18160405160240161006e91906100c5565b60408051601f198184030181529190526020810180516001600160e01b0390811663104c13eb60e21b179091526100a416565b50565b80516a636f6e736f6c652e6c6f67602083016000808483855afa5050505050565b6000602080835283518082850152825b818110156100f1578581018301518582016040015282016100d5565b818111156101025783604083870101525b50601f01601f1916929092016040019392505050565b6109f3806101276000396000f3fe60806040526004361061003f5760003560e01c8063441315c5146100445780634839ee3f146100595780638da5cb5b14610081578063d386beca146100b9575b600080fd5b610057610052366004610731565b6100db565b005b34801561006557600080fd5b5061006e610350565b6040519081526020015b60405180910390f35b34801561008d57600080fd5b506001546100a1906001600160a01b031681565b6040516001600160a01b039091168152602001610078565b3480156100c557600080fd5b506100ce61037d565b60405161007891906107e6565b66038d7ea4c68000808211156101385760405162461bcd60e51b815260206004820152601b60248201527f496e73756666696369656e742045746865722070726f7669646564000000000060448201526064015b60405180910390fd5b600160008082825461014a9190610927565b909155505060408051808201909152601a81527f257320686173206a7573742073656e74206120636f6666656521000000000000602082015261018d9033610566565b6040805160808101825233815260208082018781529282018690524260608301526002805460018101825560009190915282517f405787fa12a823e0f2b7631cc41b3ba8828b3321ca811111fa75cd3aa3bb5ace600490920291820180546001600160a01b0319166001600160a01b0390921691909117815593518051939493610240937f405787fa12a823e0f2b7631cc41b3ba8828b3321ca811111fa75cd3aa3bb5acf909301929190910190610611565b506040820151805161025c916002840191602090910190610611565b50606091909101516003909101556001546040516000916001600160a01b03169084908381818185875af1925050503d80600081146102b7576040519150601f19603f3d011682016040523d82523d6000602084013e6102bc565b606091505b50509050806103045760405162461bcd60e51b81526020600482015260146024820152734661696c656420746f2073656e64206d6f6e657960601b604482015260640161012f565b336001600160a01b03167f5d202edb9ac9aca913189e3c829f7fdbba23859e91379c70ecf7874fe39632a7428787604051610341939291906108f2565b60405180910390a25050505050565b600061037660405180606001604052806021815260200161099d602191396000546105af565b5060005490565b60606002805480602002602001604051908101604052809291908181526020016000905b8282101561051757600084815260209081902060408051608081019091526004850290910180546001600160a01b0316825260018101805492939192918401916103ea9061094b565b80601f01602080910402602001604051908101604052809291908181526020018280546104169061094b565b80156104635780601f1061043857610100808354040283529160200191610463565b820191906000526020600020905b81548152906001019060200180831161044657829003601f168201915b5050505050815260200160028201805461047c9061094b565b80601f01602080910402602001604051908101604052809291908181526020018280546104a89061094b565b80156104f55780601f106104ca576101008083540402835291602001916104f5565b820191906000526020600020905b8154815290600101906020018083116104d857829003601f168201915b50505050508152602001600382015481525050815260200190600101906103a1565b50505050905090565b61056381604051602401610534919061088c565b60408051601f198184030181529190526020810180516001600160e01b031663104c13eb60e21b1790526105f0565b50565b6105ab828260405160240161057c9291906108a6565b60408051601f198184030181529190526020810180516001600160e01b031663319af33360e01b1790526105f0565b5050565b6105ab82826040516024016105c59291906108d0565b60408051601f198184030181529190526020810180516001600160e01b03166309710a9d60e41b1790525b80516a636f6e736f6c652e6c6f67602083016000808483855afa5050505050565b82805461061d9061094b565b90600052602060002090601f01602090048101928261063f5760008555610685565b82601f1061065857805160ff1916838001178555610685565b82800160010185558215610685579182015b8281111561068557825182559160200191906001019061066a565b50610691929150610695565b5090565b5b808211156106915760008155600101610696565b600082601f8301126106ba578081fd5b813567ffffffffffffffff808211156106d5576106d5610986565b604051601f8301601f19908116603f011681019082821181831017156106fd576106fd610986565b81604052838152866020858801011115610715578485fd5b8360208701602083013792830160200193909352509392505050565b600080600060608486031215610745578283fd5b833567ffffffffffffffff8082111561075c578485fd5b610768878388016106aa565b9450602086013591508082111561077d578384fd5b5061078a868287016106aa565b925050604084013590509250925092565b60008151808452815b818110156107c0576020818501810151868301820152016107a4565b818111156107d15782602083870101525b50601f01601f19169290920160200192915050565b60006020808301818452808551808352604092508286019150828160051b870101848801865b8381101561087e57888303603f19018552815180516001600160a01b03168452878101516080898601819052906108458287018261079b565b915050878201518582038987015261085d828261079b565b6060938401519690930195909552509487019492509086019060010161080c565b509098975050505050505050565b60208152600061089f602083018461079b565b9392505050565b6040815260006108b9604083018561079b565b905060018060a01b03831660208301529392505050565b6040815260006108e3604083018561079b565b90508260208301529392505050565b83815260606020820152600061090b606083018561079b565b828103604084015261091d818561079b565b9695505050505050565b6000821982111561094657634e487b7160e01b81526011600452602481fd5b500190565b600181811c9082168061095f57607f821691505b6020821081141561098057634e487b7160e01b600052602260045260246000fd5b50919050565b634e487b7160e01b600052604160045260246000fdfe5765206861766520256420746f74616c20636f6666656520726563696576656420a2646970667358221220b1feca932c76d68ac32fd93630cd8216fbf33056a348ec3037a63e4522fa5d5364736f6c63430008040033",
  "linkReferences": {},
  "deployedLinkReferences": {}
}